:020000022000DC
:106000000000042055DB020095DB020097DB020054
:1060100099DB02009BDB02009DDB02000000000018
:10602000000000000000000000000000A1020300CA
:10603000A1DB020000000000C1020300A5DB02009A
:10604000F1030300A7DB0200A7DB0200A7DB0200CD
:10605000A7DB0200A7DB0200A7DB0200A7DB020030
:10606000A7DB0200A7DB0200A7DB0200A7DB020020
:10607000A7DB0200A7DB0200A7DB0200A7DB020010
:10608000A7DB0200A9000300A7DB0200A7DB0200D8
:10609000A7DB0200A7DB0200B97F0200A7DB02003A
:1060A000A7DB0200A7DB0200A7DB0200A7DB0200E0
:1060B000A7DB0200A7DB02000000000000000000D8
:1060C000A7DB0200A7DB0200A7DB0200A7DB0200C0
:1060D000A7DB0200A7DB0200A7DB0200F12403001C
:1060E000A7DB0200A7DB0200A7DB02000000000024
:1060F00000000000A7DB020000000000A7DB020098
:10610000000000000000000000000000000000008F
:10611000000000000000000000000000000000007F
:10612000000000000000000000000000000000006F
:10613000000000000000000000000000000000005F
:10614000000000000000000000000000000000004F
:10615000000000000000000000000000000000003F
:10616000000000000000000000000000000000002F
:10617000000000000000000000000000000000001F
:10618000000000000000000000000000000000000F
:1061900000000000000000000000000000000000FF
:1061A00000000000000000000000000000000000EF
:1061B00000000000000000000000000000000000DF
:1061C00000000000000000000000000000000000CF
:1061D00000000000000000000000000000000000BF
:1061E00000000000000000000000000000000000AF
:1061F000000000000000000000000000000000009F
:10620000F1EE103A43F08073E1EE103A704700BFB0
:1062100010B5054C237833B9044B13B10448AFF3E0
:1062200000800123237010BDA8360020000000006C
:10623000487D030008B5034B1BB103490348AFF386
:10624000008008BD00000000AC360020487D03003F
:10625000154B002B08BF134B9D46A3F5803A002138
:106260008B460F461348144A121A0DF05AFF0F4B73
:10627000002B00D098470E4B002B00D098470020F1
:10628000002104000D000D48002802D00C48AFF397
:1062900000800DF0DFFE200029000AF057FE0DF00F
:1062A000B3FE00BF00000800000004200000000052
:1062B00000000000A83600207C5F002000000000E5
:1062C00000000000F0B5104C104D89B0014620468A
:1062D00001F06AFE202607463246684600210DF08E
:1062E00020FF32466946384600F0D4FC284608496B
:1062F0000AF020FD694628460AF036FD04F50070D4
:1063000000F098FA09B0F0BDD8360020484E0020C1
:106310002473030038B5084C20460D460AF01CFDD6
:10632000204606490AF006FD294620461022BDE80F
:1063300038400AF031BD00BF484E0020A87303006A
:1063400010B51F491F480AF00FFD002103200AF075
:1063500025FB1D491B480AF007FD1C4B1C491A6808
:106360001848541C1C600AF051FD012103200AF05A
:1063700015FB0621174800F061F9164800F046F9B0
:10638000144800F015F91449124800F08BF9012166
:10639000104800F08DF9F42220210E4800F07EF91B
:1063A0001E210C4800F078F93C210A4800F0E0F981
:1063B00000B910BD09490348BDE810400AF0D4BC3B
:1063C00034730300484E0020687303000434002037
:1063D00080730300D83800204163020098730300E3
:1063E00030B5022189B00E200AF0AAFA012103205B
:1063F0000AF0A6FA002103200AF0D0FA4A484FF426
:10640000E13104460AF060FC02E00A2007F016FDC4
:1064100020460AF05BFC0028F7D0444942480AF0C5
:10642000A3FC434940480AF09FFC00220121414857
:1064300001F07CFB04213F4801F03AFD02AC3E49EB
:106440003C4801F00DFD002520463A4901F0FAFCD8
:106450003A2306220DF10901009533480AF0F2FCB7
:1064600031480AF079FC94E803009DF80930049063
:1064700003F00F030A0C43F04003ADF814102D484D
:106480008DF8162004A98DF8113001F0E1FC29499E
:1064900006A801F0D7FC3A2306220DF11901009558
:1064A00021480AF0CFFC20480AF056FC2349244832
:1064B00000F04CFF2349224800F04AFF012103204D
:1064C0000AF06CFA204918480AF04EFC1F4B20498C
:1064D0001A681548541C1C600AF098FC06211D48D7
:1064E00000F0ACF81B4800F091F81A4800F060F892
:1064F0001949184800F0D6F80121164800F0D8F8DC
:10650000F4222021134800F0C9F81E21114800F0A0
:10651000C3F83C210F4800F02BF918B10F4902488D
:106520000AF022FC09B030BD484E0020C4730300BD
:10653000F0730300D83600201C740300C56202000B
:1065400088390020156302006873030004340020BA
:1065500080730300D8380020416302009873030061
:1065600008B50A4800F0A0F800B108BD0E200AF0F6
:1065700031FA0028F9D13C21044800F0F9F8044927
:106580000448BDE808400AF0EFBB00BFD83800203F
:1065900068730300484E002072DF704773DF704756
:1065A00074DF704777DF70470022C2770270704750
:1065B000F0B589B0054620226946134801F064FC15
:1065C000EB7FC2181D2A0ADDC3F11D04E4B2E218F4
:1065D0001D2A4FF0000615DD304609B0F0BD044617
:1065E00001260927EA18601CE85469465770901C78
:1065F00022460DF072FDEB7F02331C443046EC77EF
:1066000009B0F0BD0827EDE7D836002010B50446E4
:10661000094801F09BFCE37F1C2B0ADCE2180221F5
:10662000E1540A2390705370E37F0333E377012032
:1066300010BD002010BD00BFD8360020C27F1C2A2C
:106640000DDC10B403469C18022098540120A17060
:106650006070DA7F0332DA775DF8044B7047002010
:10666000704700BF30B440F2FF12094C0949028460
:106670000125002280F82250C0E90A41C277027049
:1066800080F823204262C0E90C22826330BC70474C
:106690002000F40020001E00C1857047428501855E
:1066A000818570474163704790F82300704700BFB1
:1066B00080F82210704700BFF0B502EB8203284E2D
:1066C00087B003EB830304469B001546306894F8BB
:1066D00021C00022CDE90212ADF80C30C023049293
:1066E0008DF81330C30700920F46019205928DF882
:1066F00000C009D41B4A1C4BD17FE07F9981012146
:106700001C609A60988031606A46174904F1200045
:10671000FFF742FF10B1002007B0F0BD134894F816
:10672000206001F013FC314602460120FFF73AFFDA
:106730000028F0D1012194F82000FFF72FFF002856
:10674000E9D10A4801F048FC638EA7859D4294BFB9
:106750005B1BDB1A0120638684F82300DCE700BFA3
:10676000C436002014390020C8360020D836002056
:10677000F0B52D4D4186044687B001862846FA21A2
:1067800001F0E8FBE68D2948278D016894F821C0C7
:10679000029706EB860303EB830300229B00039220
:1067A000ADF80C30C02304928DF81330CB07009263
:1067B000019205928DF800C00BD41D4BE27F95F835
:1067C0005B129A8005F50F7501221C609D6099810E
:1067D00002606A46164904F12000FFF7DDFE10B1A1
:1067E000002007B0F0BD104894F8205001F0AEFB37
:1067F000294602460120FFF7D5FE0028F0D10121ED
:1068000094F82000FFF7CAFE0028E9D1064801F0FD
:10681000E3FB638EA7859E4294BF9B1BDB1A01207E
:10682000638684F82300DCE7D8360020C4360020D5
:10683000C836002008B5034690F82000FFF7B0FEE8
:1068400008B1002008BD83F82300024801F0D8FBFE
:10685000012008BDD836002030B50B888D88112B5B
:1068600085B004462CD0262B0FD0102B01D005B0BC
:1068700030BDCB7B012BFAD1426A03FA05F51543F3
:106880000023456280F82330F1E70B7A012BEED12B
:10689000002380F823304FF4FA71274801F05AFBA7
:1068A000238E002B30D0658E002D36D0A36B0BB11C
:1068B0009847658E618D2A462046FFF7FDFED6E794
:1068C000436AEB40DB07D2D51C4800F023FD0028CB
:1068D000CDD1636A94F82310012202FA05F523EA68
:1068E000050363620029C2D194F82230002BBED088
:1068F000238E6386FA21104801F02CFBE28D218D56
:106900002046FFF7D9FEB2E7A36B03B198470022F8
:10691000618D2046FFF7D0FEA9E7074801F070FB24
:10692000626B002AA3D004AB0095294643F8045DAE
:10693000284609F02DFF9AE7D83600208839002034
:1069400075DF704710B44FF010144FF44801002267
:10695000C0E90041C0E902225DF8044B704700BF66
:10696000014800F011BB00BFA8390020F8B5002491
:106970000B4F2546A1B2384601F016FB01340646FE
:1069800048B100F07DF930B1304600F07DF90228C1
:1069900004BF0135EDB2142CECD12846F8BD00BF80
:1069A000D83600200B881F2B12D110B50A4682B0B2
:1069B00052F8080F8C8851686B4603C32046BDF817
:1069C0000030ADF802306946FFF7BAFF02B010BDE3
:1069D000704700BF51F8262F02604A684260704736
:1069E000A1DF7047A3DF7047A4DF704700238382D5
:1069F000704700BF806900F0DDB800BF808A704733
:106A00002DE9F0410B88CE88382B86B00C46054620
:106A100042D0392B25D0362B02D006B0BDE8F0810C
:106A2000806900F0C7F80146614801F0BDFA00F046
:106A30002DF905F11C0807466EB9E28904F1100131
:106A4000404601F067FB2B8D2BB1033FBFB2E389BA
:106A5000013FBB4270DA404601F074FB06B0BDE86E
:106A6000F0810B7B012B57D0022BD6D1036B002B6F
:106A7000D3D090F83420B1F80480CE89920701F188
:106A8000100700F1848032463946284698476189CC
:106A90004046FFF7A9FFC0E700F11C07002E35D1E3
:106AA0000A8A3846314601F035FB94F80C80B8F17B
:106AB000010F2BD0B8F1040FAFD1A86900F07AF81C
:106AC00001463B4801F070FA00F0E0F82B8D0538E4
:106AD00080B2834228BF0346002B37D0218AE28947
:106AE000A869AC8AADF80C600A44696A05918DF812
:106AF0000C80ADF81230ADF81020ADF80E4000F06B
:106B000059F803A9FFF76EFF002886D0384601F038
:106B100019FB06B0BDE8F081C36A002B3FF47DAFDE
:106B200090F83420CE8901F11007D1071ED43246E7
:106B300039462846984770E7A86900F03BF86A8D07
:106B4000A98AFFF74DFF002885D166E740F20511BD
:106B5000AA8AA869ADF80C10CDE90433ADF80E206F
:106B600000F028F803A9FFF73DFFCFE703201A46FE
:106B70000090314603AB3846CDE90357059609F03E
:106B800007FE00287FF449AFE689EB6ACFE70320D0
:106B90001A460090314603AB3846CDE903570596B7
:106BA00009F0F6FD00287FF472AF2B6BE6896AE7E7
:106BB000D8360020808870477FDF704786DF7047B7
:106BC0008FDF704790DF7047B1DF7047B5DF7047E8
:106BD00010B5074B03600446C06908F001F8206A4D
:106BE00007F0FEFF606A08B107F0FAFF204610BD0B
:106BF0003474030010B5094B03600446C06907F004
:106C0000EFFF206A07F0ECFF606A08B107F0E8FFC9
:106C100020460AF0EDF9204610BD00BF3474030091
:106C2000F8B50446818000250121144F21741726F0
:106C30001B2021732760E680608125811068C4F8DD
:106C40001300908896796676A4F81700D27962735B
:106C5000194618469DF8186007F09CF93146E06126
:106C6000304607F097F9C4E90A554FF6FF732062E2
:106C700065746562A574E3812046F8BD3474030031
:106C8000007C7047407C7047407B7047C0887047ED
:106C9000008970472DE9F04186B004AC86889046A3
:106CA0000F4620464FF4285100F0AEFCCDE90078A5
:106CB0004FF6FF75012094E80C003146CDE902053E
:106CC000024800F0B9F906B0BDE8F081D8360020DE
:106CD000C2898188407B01F073BA00BF70B50B8810
:106CE000113B96B00C460546462B78D8DFE813F0EA
:106CF0008500880047008B007700770077007700D9
:106D0000A200B10077007700770077007700770066
:106D1000BD00C500CB00D100770077007700770079
:106D200077007700770077007700770077007700AB
:106D3000770077007700770077007700770077009B
:106D40007700D4007700D7007700770077007700CE
:106D5000770077007700770077007700770077007B
:106D6000770077007700770077007700770077006B
:106D70007700E700EE007700F4007900020108F0E8
:106D800025FE01284FF0500000F0DF8007F070F87A
:106D9000E86220B3502200210DF0C3F94FF6FF73D3
:106DA0007049EB816C7BEB6A0868097902936A464B
:106DB000012C11714FF0000403F11C0103F13803A1
:106DC000009006910793A888059418BF2246214693
:106DD00002ABCDE90344CDE90844FFF7EDFE16B060
:106DE00070BD8B79002BFAD1406AAB740028F6D0C5
:106DF0001A46194607F000F9F1E700230374EEE79D
:106E00004B890381EBE75022002102A80DF089F99C
:106E100002AA218A687B01F0EDF9034600287AD0A6
:106E2000002302A910AAA888FFF7C8FEBDF81A30EF
:106E3000EB81D4E70B7AC46A002B7BD008F0C6FD47
:106E40000128204600F0848007F024F80023EB623C
:106E5000C5E70B7A112B64D1A86A0028BFD00023A4
:106E60001A46194607F0C8F8B9E716A9002321F811
:106E7000503D8088FFF7A4FEB1E70B7A002BAED11E
:106E80004B7A0373ABE7002211468088FFF79AFE26
:106E9000A5E70B894381A2E74B89C3809FE78B7AE3
:106EA000002B9CD0002600231A461946286A07F0BA
:106EB000A3F80136A37AF6B2B342F4D88FE70023E1
:106EC0001A4619468088FFF77FFE88E7406A01234B
:106ED000AB740028C3D182E7417B234801F05CF802
:106EE000E188814228BF014689B2E980A888FFF77E
:106EF0006DFE74E78B79002B3FF471AF0026002301
:106F00001A461946E86907F077F80136A379F6B210
:106F1000B342F4D863E7A8881A461946FFF74EFE35
:106F20005DE7C2898188407B01F094F998B1012323
:106F30006B7491E701234374638AC381224681887D
:106F4000407B01F02BF9EC6A78E70DF0A7F81FE71A
:106F50000DF0ACF87AE7034602460146A888FFF731
:106F600033FEE4E7D7390020D836002010B50446B8
:106F7000043001F077F8034B23600023237520468B
:106F800010BD00BF0100FFFF017D01B1704710B5CA
:106F90000446043001F070F80123237510BD00BFD2
:106FA000007D704710B50B88322B18D0332B0CD0D6
:106FB000302B00D010BDCB88041D0BB94B89FBB919
:106FC0002046BDE8104001F0BDB8CB88041D002B61
:106FD000F6D14A89002AF3D002EB420208E0CB88BE
:106FE000041D002BECD14A89002AE9D002EB820271
:106FF0005200023292B20A31204601F08BF8DFE7EC
:107000000A310A22204601F085F8D9E7A0DF70474F
:1070100038B50446F82500F5F87001F023F82A4643
:10702000204600210DF07DF82A46601900210DF060
:1070300078F8204638BD00BF2DE9F04385B00546FD
:10704000BDF83800BDF83C40ADF80C006F461B4859
:10705000ADF80E4087E80C008846BDF8349000F08B
:10706000A3FF05F5F875064604E03046FFF710FE6D
:1070700006F0E4FE284601F04BF804460028F4D15F
:107080000121284600F0F8FF4A460C99284601F0F5
:107090000DF83946404603AAFFF7B8FF38B94FF458
:1070A000FA71284601F008F820EAE074A4B22846F4
:1070B00000F0ECFF204605B0BDE8F083D836002094
:1070C0002DE9F04FB1F804800E8885B00F460546D3
:1070D00041467F4800F068FFA6F11003012B81466E
:1070E00040F2B78095F8542032B3002404F116031F
:1070F000502E55F823A057D0512E19D1BB79B7F88F
:1071000008B0022B43D0BBF1000F11D051466846A6
:10711000FFF760FCBDF800305B4548D0514602A83F
:10712000FFF758FCBDF80C305B4540D095F8542073
:107130000134E4B29442D9D395F84C31002B00F0DD
:10714000BF8005F5A679002404E095F84C310134A0
:10715000A34245DD59F8040FFFF74CFC4045F4D13C
:10716000382E03D0392E01D0362EEED1B7F80AA032
:10717000BAF1000FE9D0D9F800B05846FFF73EFC4D
:107180005045E2D158463946FFF73AFCDDE7BB7B74
:10719000062BB8D1DAF800305046DB6839469847FC
:1071A0004846FFF76FFDC1E7B7F806B0ABE7DAF87E
:1071B000003050463946DB6898474846FFF762FD85
:1071C0000028B3D0502EB1D1514602A8FFF702FCDF
:1071D000BDF80C305B45A9D14846FFF779FDA5E71E
:1071E000112E11D0352E31D17B897BB305F5F87581
:1071F000BA89284607F1100100F08CFF284605B037
:10720000BDE8F04F00F09EBF95F8F81069B100247A
:1072100005EB8403621CD3F8FC00838843453AD015
:10722000D4B28C42F4D395F84C317BB1002405EBF9
:107230008406D6F85001FFF7DDFB404504F1010359
:1072400033D095F84C21DCB2A242F0D805B0BDE8AD
:10725000F08F2B78002B3FF445AF112E4FF0000438
:107260000CD005EB84034146586803685B68984777
:1072700001342B78E4B2A342F3D833E705EB84035F
:107280004146586803681B68984701342B78E4B27C
:10729000A342F3D826E703681B689847013495F8A2
:1072A000F810E4B28C42B3D3BDE7D6F85001FFF733
:1072B0009DFB013495F84C31E4B2A342B7D8C5E741
:1072C000112E8FD195F8F8100029A0D1BEE700BF8C
:1072D000D836002075DF704778DF70477ADF704757
:1072E000054A034692E80300002283E80300C3E94D
:1072F00002221846704700BF3C74030008B5FFF730
:10730000EDFF08B1002008BDFFF7E6FFB0FA80F0FE
:10731000400908BDF8B500240B4F2546A1B23846F8
:1073200000F042FE0134064648B1FFF7A9FC30B137
:107330003046FFF7A9FC012804BF0135EDB2142C3B
:10734000ECD12846F8BD00BFD836002081607047D8
:10735000C16070470A88102A03D1CA7B012A0B46F4
:1073600000D0704710B40A8A01884488914201D83D
:10737000A24205D901465DF8044B9888FFF7AABFE1
:107380005DF8044B704700BF8ADF704730B4034696
:107390001F22012418628025828480F82D4000225B
:1073A0000B4C80F82E50C0E911228262C0F8464092
:1073B00080F82C2080F82F20028680F83820426345
:1073C000C0E90F22C264A0F8502030BC704700BF53
:1073D000A00050002DE9F0478CB06F4638460C46AF
:1073E00087E80C0000F016F9C0B210282ED0019FDB
:1073F00007220623D4F818A094F81C808DF80D20DD
:107400008DF80C30C6084FF000091F22002104A897
:107410000CF087FEB8F1010F06D8B9F1000F34D097
:1074200000200CB0BDE8F08703AB514613F809C04B
:1074300043460A784878D443604502F10105234465
:1074400007D013F0FF032944F3D1E6E70322022318
:10745000D0E7013A0231D5B2DFD02A4604A80CF0B9
:107460003CFE002DD9D004AC02E012F0FF05D4D0D0
:107470003246204639460CF021FE3444AA1B00282F
:10748000F3D101200CB0BDE8F0874FF00109BCE753
:10749000F0B50B888E88103B85B00C4605460D2B49
:1074A0002CD8DFE803F070072B2B2B2B2B2B2B2B4F
:1074B0002B5B2B2D836AF340DB071FD55048FFF76A
:1074C00055FAD8B9AB6A95F82C20012404FA06F6CF
:1074D00023EA0606AE628AB995F82D3073B11F23F0
:1074E0002D62AB8405F1200105F14400FFF74CFF4C
:1074F00020B9444800F070FD85F82C4005B0F0BD7F
:1075000090F92E2091F91B309A4220DC90F8383007
:1075100001F108079BB1002602E0D6B2B3420CD9B4
:107520006B6B03EBC6030CCB39462846FFF752FFC3
:10753000721C95F838300028EFD09E4207D095F89D
:107540002F30002B38D094F82430012B41D805F18E
:1075500020010020FFF718FF05B0F0BD0B7A012BCA
:10756000CCD1002480F82C40264800F049FD2A6C3C
:10757000002AC3D004AB0094214643F8044D2046B2
:1075800009F006F9BAE7CB7B022BB7D10122836A57
:1075900002FA06F633430022836280F82C20ADE71E
:1075A0000139CCB2911CD2D0022C20D95388ADF82D
:1075B0000C302A8E9A42CAD1EA6B002A9ED004ABC4
:1075C000012143F8047D38460091242109F0E0F8B8
:1075D00094E7226A11785078CC43FF2801F1010624
:1075E0002344DDD013F0FF033244F3D1AFE722464A
:1075F00003A80CF072FD002CA9D0BDF80C30D8E720
:1076000098390020D83600200122002301808270A2
:10761000436070478378012B08D042680AB180200C
:107620007047012B8CBF80200020704710207047CE
:107630004DDF70474EDF70474FDF70474BDF7047BD
:1076400010DF70476CDF70476DDF70477CDF70477D
:107650007DDF704760DF704769DF704761DF70472B
:1076600066DF704767DF7047704700BF042009F08E
:10767000D3B900BF30B52C4C2C4D83B04FF0FF3147
:10768000D4F8080307F000F90028F7D06DB301A87B
:10769000FFF7D4FF05280346F0D00028F7D1019A60
:1076A000911E10460929F2D80FF2040C5CF821F063
:1076B0001B7702001B7702008F7602008F76020094
:1076C0008F7602008F7602008F7602000577020027
:1076D00005770200057702000A2B04D0092B21D080
:1076E0000B2B02D1012006F067FA01A8FFF7A6FFD5
:1076F0000528C3D00028F8D1019BA3F10902022A72
:10770000F3D8E9E70A2A04D0092A09D00B2ABED106
:107710000123184606F050FAB9E706F0B1F9B6E7CA
:107720000223F6E70220DEE7D836002081DA0200E5
:107730002DE9F04F89B008F049F901284FF4FA70AB
:1077400000F0848106F094FB0646B34C06F1080372
:1077500004F5587704F5007A03934FF0FF31D4F81D
:10776000040307F091F80028F7D04FF4FA730DF1F5
:1077700016013046ADF81630FFF770FF10B105283E
:10778000EBD0F2E7B6F80490B9F1130F00F22081C4
:1077900004EB8903D3F814531DB131462846FFF793
:1077A0009DFA3388013B1B2B5BD8DFE813F0A30065
:1077B0005A005A005A005A005A005A005A005A00F9
:1077C0005A005A005A005A005A005A00A8001C00D9
:1077D0005A005A005A005A005A005A005A005A00D9
:1077E0005A005A00FE00DFF844824FF0000B58F8B0
:1077F000043F184633B1FFF743FA18B10BF1010B00
:107800005FFA8BFB4745F2D1BBF1000F06D194F82C
:1078100010331BB15946042009F0C0F82846FFF781
:1078200033FA012800F0F180D4F8CC2262B10223AF
:10783000CDF81890002196F808C00093084606ABD2
:10784000CDF81CC008F0A4FF09F1C40804EB8803BC
:10785000586810B103685B68984704EB88030022FE
:107860005A6031465046FEF7F7FF31466B48FFF746
:107870000FFEB4F812334B45338800F0AB80102B69
:107880001ED02DB32846FFF7FFF9012803D131465A
:107890006348FFF75FFD2846FFF7F6F902281BD083
:1078A0006048FFF77DFB00BB31465B48FFF708FCF3
:1078B000D4F86833002B3FF458AF3046984754E76C
:1078C000F37B012BDDD1B388A4F81233002DD9D17D
:1078D00031465348FFF73EFD53483146FFF762F803
:1078E0005048FFF75DFB0028DED031464D48FFF7DA
:1078F00059FBD9E700214846FFF7B2FEB1E74FF048
:107900000008D4F80C03CDF800804346424603211A
:10791000464D08F03DFB55F8043F184633B1FFF7DC
:10792000AFF918B108F101085FFA88F8BD42F2D149
:1079300094F81033002B58D109F1C40804EB8805E2
:10794000686820B103685B68984700236B60F37B2D
:10795000012B0BBF94F8F33294F8F93294F8F2B299
:1079600094F8F8B20293302009F032FB029B0093A6
:10797000039A5B4649460546FFF752F904EB880334
:1079800028465D60FFF780F9012851D0D4F8C8225D
:10799000002A3FF466AF012300210093084606AB9E
:1079A000CDF8189008F0F4FE5BE7D4F86423002AC1
:1079B0003FF457AFCDF818900223002196F908C084
:1079C0000093084606ABCDF81CC008F0E1FE48E77E
:1079D0000546E6E6102B3FF473AF112B7FF451AF51
:1079E0004FF6FF73A4F812334BE718F1000118BFEC
:1079F0000121042008F0D2FF94F81033002B9BD013
:107A00000121042008F0CAFF96E7D4F8BC22002A1E
:107A10007FF40DAF18E700BFD836002034390020BE
:107A200088390020A839002098390020E839002042
:107A3000D4F8B822002A3FF414AF0021009006AB1E
:107A40000846CDF8189008F0A3FE0AE70CF026FBD4
:107A500006467AE638B50446FFF7DAFA04F5007010
:107A6000FEF700FE04F50F70FEF79EFD04F517709B
:107A7000FFF78CFC04F52C70FFF732FC04F5307036
:107A8000FEF760FF04F53470FFF770FA4FF40063FF
:107A90000025C4F8E83222482249234AC4F8EC02FF
:107AA00040F20113C4F8F012C4F8F422A4F8F8323A
:107AB000A4F8FA52A4F8FC52294604F54570502265
:107AC0000CF02FFBC4F8FF5294F8FF3294F8022315
:107AD000C4F80453032143F0010361F306130A437E
:107AE00001204FF6FF71C4F80853C4F80C5384F812
:107AF000FE52C4F86853C4F8645384F81003072591
:107B00001020A4F81213032184F8010384F8FF3233
:107B100084F8005384F8022384F80313204638BD08
:107B2000010A17000300010117000300F0B580F8F7
:107B3000FC128DB080F8FD22B84E044608F04AFCD5
:107B400008F050FC08F01AFC0CA8336940F8243DFA
:107B5000B349FFF775FD18B1002528460DB0F0BDFB
:107B600003460120FFF766FD0120FFF761FD0120BC
:107B7000FFF762FDAB4994F8ED5204910A460120EB
:107B800009A90993CDE90A338DF82450FFF764FD64
:107B90000028E1D194F8FD320B90CDE90900181CC2
:107BA00018BF012094F8FC528DF82700049A8DF834
:107BB000263009A940208DF82550FFF74DFD0028FB
:107BC000CAD194F8EC120990034661F30003CDE9A1
:107BD0000A00049A8DF8243009A9A020FFF73CFD83
:107BE0000028B9D1D4F8E8320A900B90049A09938E
:107BF00009A9A120FFF730FD0028ADD194F8FC328F
:107C0000002B40F0BC8094F8FD32002B48D00023BC
:107C10000225B4F8F472049A099309A92320CDE946
:107C20000A338DF82450ADF82670FFF715FD0028B3
:107C300092D1CDE9090094F8FD72B4F8F6320B90B8
:107C4000049A8DF8245009A920208DF82670ADF8EB
:107C50002830FFF701FD00287FF47EAF099094F8EB
:107C6000F832049A8DF82450CDE90A0009A922209F
:107C70008DF82630FFF7F0FC00287FF46DAFCDE9DA
:107C800009000B9094F8F932049A8DF8245009A950
:107C900021208DF82630FFF7DFFC00287FF45CAF51
:107CA00004A8FFF7D7FC00287FF456AFC3B2CDE994
:107CB000070043F0010307A902208DF81C30FFF7ED
:107CC000D1FC00287FF448AF04F52C70FFF716FBB9
:107CD000054600283FF440AF0CA8337D00F8283D4E
:107CE0000B225149FFF7B2FC00287FF435AF012089
:107CF000FFF7A0FC0120FFF79BFC0120FFF79CFC95
:107D000094F8FD32002B40F08480032200210120F2
:107D100006F0FEF8C4F8040300283FF41DAF05ABDD
:107D20000326CDE900634FF4A06200233F49404899
:107D300007F0EEF832460021012006F0E9F8C4F819
:107D4000080300283FF408AF06ABCDE90063C82262
:107D500000233849384807F0DBF83849384A00230F
:107D60004FF4800008600092184601224FF48071A1
:107D700008F0B6F8C4F80C0300F0F0F9EDE609904D
:107D80000123B4F8EE52049A8DF82430CDE90A00AC
:107D900009A92320ADF82650FFF75EFC00287FF4E8
:107DA000DBAECDE9090094F8FC72B4F8F0520B9008
:107DB000049A8DF8243009A920208DF82670ADF89A
:107DC0002850FFF749FC00287FF4C6AE099094F8CC
:107DD000F252049A8DF82430CDE90A0009A9222034
:107DE0008DF82650FFF738FC00287FF4B5AECDE9BA
:107DF000090094F8F3520B90049A8DF8243009A9E5
:107E000021208DF82650FFF727FC00283FF4FBAE19
:107E1000A2E604F53070FEF7A3FD76E74474030094
:107E200069760200003400206C740300787403004B
:107E3000317702007C7403007576020000E100E0F7
:107E40006D76020008B50346FFF7FEFB184608BD35
:107E500008B50846FFF7F6FBB0FA80F0400908BD08
:107E600030B5084B83B002AC1B7D04F8043D0846D6
:107E70000D460CF0F8FF294682B22046FFF7E6FBDC
:107E800003B030BD4474030000B583B002AB0846B4
:107E900023F8022D1946FFF7DBFB20B99DF80600F9
:107EA00003B05DF804FB002003B05DF804FB00BFE5
:107EB00070B4254B0C4606460FCB85B06D4607C502
:107EC0009DF900202B80A24237D09DF90130A342BA
:107ED00033D09DF90230A3422FD09DF90330A34245
:107EE0002BD09DF90430A34227D09DF90530A34241
:107EF00023D09DF90630A3421FD09DF90730A3423D
:107F00001BD09DF90830A34217D09DF90930A34238
:107F100013D09DF90A30A3420FD09DF90B30A34234
:107F20000BD09DF90C30A34207D09DF90D30A34230
:107F300003D0002005B070BC7047012086F8FE42D7
:107F400005B070BC704700BF5C74030090F9FE027E
:107F5000704700BF70B5054682B0D0F80C030C46E0
:107F600008F042F80B4AA402A2FB043200230646A2
:107F70009209D5F80C030093042108F009F83EB9E2
:107F8000D5F80C03009633463246032108F000F87A
:107F900002B070BDD34D621001290CBFB0F8EE02E3
:107FA000B0F8F402704700BF13299ABF00EB8100BC
:107FB000D0F814030020704710B5064C0021D4F807
:107FC000080306F0A3FAD4F804030021BDE810402A
:107FD00006F09CBAD836002090F8103303B97047E9
:107FE00010B582B0D0F80C4307F072F900230246B6
:107FF00000932046012107F0CBFF02B010BD00BF67
:10800000F0B583B0002507462B46D0F80C03009549
:108010002A46032107F0BCFF07F5447407F558769C
:1080200054F8041F084621B1FEF72AFE08B10135B5
:10803000EDB2B442F4D197F810330BB903B0F0BDF0
:10804000291C18BF0121042003B0BDE8F04008F04E
:10805000A5BC00BF0148FFF7FDBC00BFD83600201B
:10806000002070470022012142700170C0E9012206
:10807000C2818281704700BF017001B1704710B5A5
:1080800004460A2005F086FF606010BD037810B535
:10809000044613B9406806F0A3FD00230122637073
:1080A000C4E90133E381A381227010BD0023816004
:1080B0008281C381704700BF037870B504460D46C6
:1080C000B3B940681149AD02A1FB0531012389090B
:1080D000637006F0D9FBB0B94FF0FF352378002666
:1080E00066701BB1606806F07BFD6660284670BD57
:1080F00003220021012005F00BFF60600028E1D180
:108100004FF0FF35F2E7E589ADB2E7E7D34D6210F6
:108110004078704770B58689964204463546806837
:1081200028BF154621B12A460BF0D7FFA068A689C3
:10813000E3892B442844761B9BB2A060A681E3818F
:10814000284670BD406820B100231A46194605F044
:1081500053BF7047B1DF7047B2DF704708B50C48B6
:1081600005F014FB0B490A4800F018FA58B10A4907
:10817000074800F013FA00B108BD07490448BDE8FC
:10818000084000F017BA0349014800F013FAEEE77F
:10819000443A0020F47403000875030010B586B05B
:1081A0000323CDE9030114460093104603AB034AB1
:1081B0000594502108F0ECFA06B010BD2D830200A2
:1081C0004FF6FF739A4211D070B586B00D46032367
:1081D0000021064614460093084603AB044A039662
:1081E000CDE9045408F0D4FA06B070BD0020704701
:1081F0000984020030B5144B144CA1B015460A4650
:1082000001280CBF2146194668460CF0E5FD694679
:1082100007A80F4B002200F0CBFA07A800F0E2FB02
:1082200018B90024204621B030BD044607A800F04C
:1082300031FA5028F5D10246294607A800F070FB14
:1082400007A800F097FBEDE7D8740300BC740300A7
:10825000443A0020F0B54FF6FF73A1B09A4200AF48
:1082600059D02F4B0C462F49012818BF19463846C4
:108270000CF0B2FD394607F11C002B4B002200F038
:1082800097FA07F11C0000F0ADFB40B9002407F19C
:108290001C0000F06FFB20468437BD46F0BD07F19F
:1082A0001C0000F0F7F9051E08DD07F11C0000F0C6
:1082B00057FB291807F11C0000F042FB07F11C00D6
:1082C00000F0E8F9051E08DD07F11C0000F048FB8E
:1082D000291807F11C0000F033FB07F11C0000F027
:1082E000D9F90028D2DDC31D23F0070385B26E46FD
:1082F000ADEB030D69462A4607F11C0000F010FBA8
:10830000204669462A460323FFF724FFB0FA80F48B
:108310006409B546BBE7002420468437BD46F0BD5E
:10832000D8740300BC740300443A002030B51446EE
:108330000128ADB00D4607BF528A2E492E49E28D65
:1083400004A80CF049FD04A92C4800F027F958B9FD
:1083500004A913A8294B012200F02AFA13A800F05F
:1083600041FB30B92DB030BD04A9244800F06EF9AE
:10837000EEE7502113A800F0BFF95022214613A8C0
:1083800000F06CF9202200210BA80BF0CAFE294650
:108390001B48FFF709FE0BA92022FEF77BFC9DF886
:1083A0002C309BB994F8491094F84D3094F84E2035
:1083B00094F84A50039194F84B0094F84C100091B3
:1083C000CDE901050F490BA80CF006FD0BA80CF038
:1083D0004AFD013084B2E1B213A800F08DF92246C3
:1083E0000BA913A800F03AF913A800F0C3FA2DB0B6
:1083F00030BD00BFBC740300D8740300443A0020B1
:10840000D83600201C7503002DE9F043A3B000AF5F
:1084100007F18804002324F8823D0D468046194662
:108420009146032322462846FFF796FEFB886E46B8
:1084300023B9B5468C37BD46BDE8F0830733DB086A
:10844000A6EBC3039D462246284669460323FFF751
:1084500083FE6D4604460028EBD1274B27494A4648
:10846000B8F1010F18BF194607F108000CF0B4FC71
:1084700007F1080107F12400214B012200F098F9CF
:1084800007F1240000F0AEFA0028D2D0214607F10F
:10849000240000F055FA07F1240000F0FBF8041E58
:1084A00008DD07F1240000F05BFA211807F1240031
:1084B00000F046FA07F1240000F0ECF8041E08DD95
:1084C00007F1240000F04CFA211807F1240000F015
:1084D00037FAFC8807F12400E1B200F00DF92246DA
:1084E000294607F1240000F0B9F807F1240000F054
:1084F00041FAB5469EE700BFD8740300BC74030080
:10850000443A0020704700BF10B5044608F070FDE3
:10851000204610BD38B5074B04460D4640F80C3BCD
:10852000442200210BF0FDFD0023A56023712046AD
:1085300038BD00BF4475030038B504794CB9054611
:1085400049B1816005F10C0003F010FA08B901246B
:108550002C71204638BD81680029F3D1204638BDF2
:1085600038B50379044600F10C051BB1284603F029
:10857000FFFA40B9A168284604F072FA18B92379C5
:108580001BB9012038BD002038BDA168284603F082
:10859000EDF9B0FA80F0400938BD00BF00B595B0E4
:1085A00001AA0C3003F09CF9B0FA80F0400915B034
:1085B0005DF804FB2DE9F84F0B7880462F2B00AFB8
:1085C0000E460CBF481C084608F10C084FF0000985
:1085D00018E0ADEB030D8D42EB468DF800900DF1E8
:1085E000010001DD0BF09DFD31462A4658460BF097
:1085F00074FD5946404604F0FFFC08B1113020D10B
:10860000601CD5462F210CF007FC851B05F10803E3
:10861000044623F00703EA462A4600210028D8D161
:108620003146404604F0E8FC18B90120BD46BDE8DB
:10863000F88F10F1110F14BF00200120BD46BDE8D6
:10864000F88F0020D546BD46BDE8F88F08B50C3040
:1086500004F0F0FEB0FA80F0400908BD037D0BB1D4
:108660000020704710B5046913460A46816904F179
:108670000C0002F01DFA002800DD10BD002010BD26
:10868000037D03B170470369816903F10C0004F0B5
:10869000C7BD00BF037DA3B900B50369816983B07D
:1086A00003F10C000DF10702012303F06BF8002821
:1086B00004DD9DF8070003B05DF804FB4FF0FF30C8
:1086C000F9E74FF0FF30704738B5037D13B100254F
:1086D000284638BD04460069A1690C3003F0F6F85D
:1086E000237D0546002BF3D12069A1690C3003F0EE
:1086F000EBF82D1A284638BD10B582B0027D8DF8F2
:10870000071012B1002002B010BD01680A4A4C687F
:10871000944203460AD1006999690C3001230DF196
:10872000070202F0C5F90028EDDCEBE701220DF1AC
:108730000701A047E7E700BF5D86020030B5037D73
:1087400083B0002B2FD10368184A1B69934204465B
:1087500026D10069A1690C3001230DF1070203F055
:1087600011F80028CCBF9DF807504FF0FF35237D4E
:1087700013B1284603B030BD2069A1690C3003F065
:10878000A3F8024650B9237D002BF2D12069A169DC
:108790000C3003F067F8284603B030BD421EF2E704
:1087A00098470546E3E74FF0FF35E2E7958602007C
:1087B0002DE9F0410446594E0361002594B04FF471
:1087C0007A779046C4E90065257584F82050C4E99D
:1087D000065503F10C00A76001AA0D4603F080F8CE
:1087E000D0B99DF80430112B4BD007F0EFF80128D9
:1087F0004FF02C0068D005F03BFBA06140B123692D
:1088000001462A4603F10C0002F090F800285ED0E1
:10881000204614B0BDE8F0810230F9D1B8F1010F63
:10882000F6D107F0D3F801284FF0380069D005F0F1
:108830001FFBA0610028EBD0236901462A4603F103
:108840000C0040F2031304F037FC06460028DFD189
:108850002069A1690C300223324603F003F8267523
:108860002F2128460CF01CFB04F1200300B1451C0D
:108870002946184640220CF0FEFA204614B0BDE806
:10888000F081B8F1000F34D0B8F1010FE8D140F217
:10889000031607F09BF801284FF038002BD005F0A5
:1088A000E7FAA0610028B3D022690146334602F1FD
:1088B0000C002A4604F000FC0028A9D1B8F1010FF1
:1088C00022D000232375CBE70BF0E8FB95E70123CB
:1088D000237528460CF0C7FA461C07F077F80128E4
:1088E00030460BD005F0C4FAE06129460CF0A1FA3D
:1088F000B6E70126CDE70BF0D1FBD2E70BF0CEFBBC
:10890000F2E70BF0CBFB94E72369A169024603F180
:108910000C00022302F0A6FFD3E700BF547503004A
:1089200030B40C46017D11B1002030BC70470569A0
:108930008169134605F10C00224630BC02F022BFCB
:10894000037D0BB10020704710B504690A468169A8
:1089500004F10C0002F086FFC043C00F10BD00BF41
:10896000037D0BB1002070470369816903F10C009E
:1089700002F0AABF816951B338B504460069237D6E
:108980000C30BBB102F080F8A56907F01FF8012890
:10899000284620D005F07EFAE5690023A36135B1B1
:1089A00007F014F80128284612D005F073FA0023C6
:1089B000E36138BD04F0AEFCA56907F007F80128B3
:1089C00028460BD005F066FA0023A36138BD704736
:1089D0000BF06CFBEBE70BF069FBDDE70BF066FBE4
:1089E000F2E700BF8069003018BF0120704700BF68
:1089F0002DE9F047804600681646026A82B0B2420E
:108A00000B9F4AD90C461D468FB92DE0B5FBF1F2FC
:108A100001FB1252D0F8049052B3AA1AA368266040
:108A2000626000913146C847F8B9D8F80000236861
:108A300041699E42EAD163689D42E7D3CA189542D4
:108A4000E4D2A2EB0509B945A1680A9828BFB94646
:108A5000EB1A19444A46BF1A0BF03FFB0A9B4B44E2
:108A60004D440A93002FE0D1002002B0BDE8F0870A
:108A7000B942D2D8B7FBF1FA01FB1A7AA7EB0A0781
:108A800000970A9B2A463146C8470028EDD10A9B29
:108A90003B443D440A935746E4E7034B034A0448EA
:108AA00012210BF07FFA00BFF4750300707503000C
:108AB000147603002DE9F04F85B00392002B5AD0B5
:108AC00088460168C9695C1EA1F108090E9BB4FBC8
:108AD000F9F50746B3FBF9F6BDB3681E02920BF039
:108AE00047FA851CA4EB8505029AB5FBF9F56EBB28
:108AF000B5424AD90DF10C0A4FF004094FF0010BB1
:108B00000AE0012A4BD93B681B6A9A4247D80BFA04
:108B100004F42D1BB54238D9AC1BB4FA84F495FA91
:108B2000A5F3C4F11F04B3FA83F39C4228BF1C468B
:108B3000CDE900A9A30041463846FFF759FF039A43
:108B40000028DED005B0BDE8F08FF6B1701E0292AD
:108B50000BF00EFA0E9B861CA3EB8606B6FBF9F60D
:108B600030460BF005FA0E9B029A06FB1939A9EB69
:108B700080030E93BCE70F994FF0FF320A60109A02
:108B80001846136005B0BDE8F08F0F9B1A60109B6C
:108B90001A460E9B1360002005B0BDE8F08F034B12
:108BA000034A04484FF48F610BF0FCF99076030000
:108BB00090750300147603002DE9F04F0446D2E9C6
:108BC00000038FB0002608900291099304F1140964
:108BD000B3460DF1280A08AB494653F82670102316
:108BE000CDE900A33A4600232046FFF701FF002805
:108BF00039D1BBF1000F63D10B9B23F00043132B42
:108C000054D92268D269934250D80EAB4FF0FF314D
:108C100043F81C1D102218465146039304F048FDEA
:108C20000B9B23F00042102A25D0CDE904B6102575
:108C30000DF11B081646DDF80CB004E0584604F0B0
:108C400037FDAE4215D00123CDE900833A462B46CD
:108C500049462046FFF7CCFE012241461544002834
:108C6000ECD0DDE904B610F1340F1FD00FB0BDE831
:108C7000F08FDDE904B6079B751CBBB905F0010553
:108C80000DF1380C0CEB850C029D03959AE80F0052
:108C90006F605CF8187CAF602F46BC461C3510270F
:108CA000CCF80C7085E80F004FF0010B7EB1BBF1E2
:108CB000000F14BF00206FF033000FB0BDE8F08F3D
:108CC000029A0A9BD2699B1A002B95DAEEE70126DD
:108CD00081E700BF2DE9F04F984603681B6A87B013
:108CE0004345109EDDE911A740F2D780002F4AD0FE
:108CF00081468B461546DBF8003043454ED00133A4
:108D000040F0C580D9F800008269B6FBF2F302FB9F
:108D10001363002B3BD1BA4239D8B7FBF2F302FB05
:108D200013730393FB1A00930293846853463246ED
:108D30004146A047002840F0A380029B002D00F090
:108D40009B80DBB15446371B9A4408E014F8013B82
:108D50009DF817209A4240F09180A2450ED0012341
:108D600001930DF11703009342463B1929464846EB
:108D7000FFF73EFE0028E9D0C0F28280029B039FED
:108D80001E44002FB7D1002007B0BDE8F08FF31AC2
:108D9000CBE90083DBF800304345B0D1DBF8042099
:108DA000B242ACD8D9F800108C691444B442A6D9A8
:108DB000A41BBC42DBF8080028BF3C46B21A104492
:108DC000514622460BF089F9D9F80000D0F818C0B6
:108DD0002644B6FBFCF30CFB13633F1BA244002BA1
:108DE000CFD1DBF800104B1CCBD0DBE90123CDF851
:108DF00000C08468A047002842D1D9F80030DBF8D1
:108E000008009A696DB3DBE9001352B382181B1A8C
:108E1000CDF808B0CDF80C801096044693460E4667
:108E2000984607E014F8013B9DF817209A4225D197
:108E3000A34528D0012301930DF117030093324677
:108E400008EB040329464846FFF7D2FD0028E9D085
:108E5000DDE902B8109E13DBD9F80030DBF808001A
:108E60009A69FF210BF05DF94FF0FF33CBF800302A
:108E7000002F7FF440AF86E79A447FE76FF033001E
:108E800007B0BDE8F08FDDE902B8109EE4E7064BBD
:108E9000064A0748B7210BF085F8064B034A0448F9
:108EA0009C210BF07FF800BFD8750300807503008C
:108EB00014760300F47503002DE9F04F9046026824
:108EC000126A83B04245DDF830900D9E6CD91EB316
:108ED00082460F461D463B68984527D001335DD139
:108EE000DAF800008269B5FBF2F302FB1353BBB959
:108EF000B24215D8B6FBF2F402FB1464361B00969E
:108F0000D0F808B04B462A464146D84728B9B14464
:108F100035442646002EDED1002003B0BDE8F08F98
:108F2000EB1AC7E900833B689845D7D17968A94215
:108F3000D4D8DAF8002092690A44AA42CED9541B48
:108F4000B442B86828BF3446691A084422464946E4
:108F50000BF0C3F8DAF8000082692544B5FBF2F3A0
:108F600002FB1353361BA144002BD3D139684B1C91
:108F7000D0D0D7E901C3009284686246A047002898
:108F8000CBD1DAF80030B8689A69FF210BF0C9F844
:108F90004FF0FF333B60002E9DD1BDE7054B064AE5
:108FA0000648B7210AF0FEFF054B034A03489C21FF
:108FB0000AF0F8FFD87503008075030014760300EB
:108FC000F47503002DE9F04F934691B0002401227F
:108FD000CDE905315B46CBE909429A468346DAF88A
:108FE0002830013300F00F810AF12402514658461F
:108FF000FFF7E2FD079000287AD15246DAF80C30EC
:10900000DA469346DBF8201021F00042043A03F1DF
:109010000C00824228BF0AF1140980F0AA800029BE
:1090200080F2ED800AF11409DBE909234FF0000812
:109030000A920B9347460AAB494653F8286010231F
:1090400001930CAB0093324600235046FFF7D0FC4F
:1090500000283FD12FB10C9BDBF81C209B1A002B62
:1090600065DB0D9B23F00043132B60D9DAF8002059
:10907000D26993425BD810AB4FF0FF3143F81C1D0F
:10908000102218460CA9029304F012FB0D9B23F04A
:109090000042102A32D00397CDF8108010240DF131
:1090A00023051746DDF8088004E0404604F000FB85
:1090B000A74221D00123CDE9005332462346494639
:1090C0005046FFF795FC0122294614440028ECD0B5
:1090D000DDE9037810F1340F29D05B46D3469A4678
:1090E000831C40F09380DAF8243001337FF477AFAB
:1090F000079811B0BDE8F08FDDE90378099B08F10E
:109100000104A3B90CAB10AD0FCB04F0010405EBC7
:109110008404102554F8184CCBF808400BF11C04BB
:10912000CBF80460CBF80C5084E80F000127B8F1AD
:10913000000F1AD0002F5BD0DBF82010DBF81820CE
:1091400021F00043043B143210201B2BCBF81820D5
:10915000CBF80C000CD80029FFF666AF5B46D3466F
:109160009A460346059A1360BDE74FF0010862E78F
:109170000346059DDBF80420281D0C24CDE90004DE
:1091800049465046FFF734FC0028A6D16B79A979EF
:10919000EA79DBF80C00286004330B4413440344E1
:1091A000CBF80C306A79AC79E879DBF81810043226
:1091B000224402440A44CBF818202A7902F07002B3
:1091C000202A7FF41FAF0598069C8168226891428F
:1091D00008D0C0686468A04204D0A14202D0824294
:1091E0007FF410AF01230793079811B0BDE8F08F0B
:1091F0006FF033030793079811B0BDE8F08F5A461C
:10920000D3469246AEE70023079371E707906FE7D6
:109210002DE9F04FA3B001230691002417A90BAA52
:10922000CDE90B438346FFF7C7FC079000287DD1AB
:10923000209B01337AD0219B013377D020AA17A934
:109240005846FFF7B9FC00286FD11A9CDA461F9ADE
:1092500022F00043043B04F10C018B4228BF0AF1C9
:10926000140B80F09380002A80F28B800AF1140B9B
:10927000DDE9202300250D920E93A8464FF010093A
:109280000DAB594653F82560CDF8049013AB00930D
:10929000324600235046FFF7ABFB00283FD1B8F120
:1092A000000F04D0139B1E9A9B1A002B57DB149BB4
:1092B00023F00043132B52D9DAF80020D2699342ED
:1092C0004DD822AB4FF0FF3143F8601D102213A997
:1092D0001846039304F0ECF9149F27F00042102A7B
:1092E0002AD0CDE9048510240DF127071546DDF8B5
:1092F0000C8004E0404604F0DBF9A5421AD00123BB
:10930000CDE900733246234659465046FFF770FBBD
:109310000122394614440028ECD0DDE9048510F11F
:10932000340F1CD0831CD34682D00790079823B0FB
:10933000BDE8F08FDDE904850A9B6C1C7BB913AB9B
:109340000FCB22AF04F0010407EB840407E90F0000
:1093500054F8543C1896CDE919394FF001089DB1E5
:10936000B8F1000F41D01F991D9A21F00043043B32
:10937000143210241B2B1D921A9407D80029FFF6D3
:1093800077AFD3460F9453E7012579E710A80C2552
:10939000CDE90005189A234659465046FFF728FBA9
:1093A0000028BFD19DF841209DF842509DF8430010
:1093B0001A9C1D999DF940300F9404322A440244AE
:1093C0001444002B0A441A941D92FFF640AF082261
:1093D000069911A80AF072FE00287FF438AF012325
:1093E0000793079823B0BDE8F08F6FF0330307931E
:1093F000079823B0BDE8F08F2DE9F04F97B01C46D9
:109400000C9340F62203824624685360104608926B
:10941000DAE90123D3460A948260C3608A460A9D32
:10942000BF4928460BF050FD2B4603440446BC4977
:10943000099318460BF005FD0128079000F0728192
:10944000022800F07881099B079A9D18CDE90A55FA
:109450000124B34928460BF037FD05442846B0499E
:109460000BF0EFFC78B1022802D001340544F0E79C
:109470002B782E2BF9D16B782E2BF6D1013CF5D120
:10948000AB1C0A93CBE7099B1878002800F0888072
:109490000C9A1360089A1379222B40F05B8102F139
:1094A00008031A46514658460D93FFF785FB0028DE
:1094B00076D15246DAF80C30DA469346DBF82010C3
:1094C00021F00042043A03F10C00824228BF0AF165
:1094D000140980F0A480002980F294800AF1140914
:1094E00012ABD0460393CA46DBE9092300255F4649
:1094F00010921193A946AB4610AB514653F82B502E
:1095000010230193039B00932A4600234046FFF754
:109510006FFA002841D1B9F1000F04D0129BFA690B
:109520009B1A002B58DB139B23F00043132B53D9BA
:10953000D8F80020D26993424ED816AB4FF0FF31D5
:1095400043F81C1D102218460399049304F0B0F848
:10955000139B23F00042102A27D0CDF81490CDF8A9
:1095600018B010240DF13B069146DDF810B004E070
:10957000584604F09DF8A14515D00123CDE90063BC
:109580002A46234651464046FFF732FA0122314629
:1095900014440028ECD0DDE9059B10F1340F1BD0FA
:1095A00017B0BDE8F08FDDE9059B0F9B0BF10104BF
:1095B00093B9039B7D600FCB04F0010416AE06EB5C
:1095C0008404102554F8184CBC6007F11C04FD609D
:1095D00084E80F004FF00109BBF1000F19D0BB4622
:1095E000B9F1000F76D0396ABA6921F00043043B23
:1095F000143210201B2BBA61F8600DD80029FFF639
:1096000073AF0346089A6FF00100136017B0BDE80E
:10961000F08F4FF0010B6FE7D1460346C246089F1B
:10962000DBF804200C20391DCDE9001049465046D6
:10963000FFF7DEF90028B3D17B79BA79F879DBF846
:109640000C403C600433134403442344CBF80C30F7
:109650007D79B879FE79DBF818102A1D024432446E
:109660000A44CBF818203A7902F07F01112902D080
:1096700022297FF423AF07998E427FF41FAF043471
:109680002C440444DBF8046000295FD0099DCDF828
:109690000CB012AB641B0127DDF82CB0984607E034
:1096A00015F8013B9DF848209A4216D15D4519D026
:1096B000CDE900876319324649465046FFF798F9CD
:1096C0000028EDD0D346DDF80CA0FFF669AF089B6B
:1096D0001A790CE06FF0330062E7DDF80CB0DBF8CC
:1096E0000C30EBE6089BD3461A79DDF80CA0130684
:1096F0007FF595AEDBF8043001330BD0DBF8083092
:10970000013307D00D995846FFF782FD002824D178
:10971000089B1A79089B02F07F021A717FE600BF4E
:10972000BC7603002B5D2E2B7FF48DAE099B079A30
:1097300013440A9373E6099B1B782E2B7FF483AEA8
:10974000099B5B782E2B7FF47EAEEFE75B46D3461A
:109750009A46CCE76FF0130022E7FFF621AF6FF0D7
:1097600001001DE72DE9F04F4468013493B000F08B
:109770008B8084680134824600F08680904689465A
:10978000002101230A910AAA41460B93FFF714FA1C
:1097900000287AD143460AF1140BC8469946D9F8F5
:1097A0002430581C70D0D9F82820511C6CD0D8F81F
:1097B000001099426CD0D8F80400904268D08342DF
:1097C00066D0914264D0CDE90C32002503950EAFEE
:1097D000CDF810800CAB594653F825601023CDE925
:1097E0000073324600235046FFF702F9002840D1AB
:1097F000039B2BB10E9BD9F81C209B1A002B3BDB43
:109800000F9B23F00043132B36D9DAF80020D269DE
:10981000934231D812AB4FF0FF3143F8241D102290
:1098200018463946059303F043FF0F9B23F000428F
:10983000102A33D00695CDF81C9010240DF1230882
:109840001546DDF8149004E0484603F031FFA542C8
:1098500022D00123CDE900833246234659465046A3
:10986000FFF7C6F80122414614440028ECD0DDE998
:10987000065910F1340F08D165B3DDE90338002B28
:109880008DD16FF0330000E0002013B0BDE8F08F01
:10989000012013B0BDE8F08FDDE90659099B6C1C6F
:1098A000002BE9D197E80F0004F001040DF1480CFA
:1098B0000CEB8404C9F8046054F8184CC9F808404B
:1098C000102609F11C04C9F80C6084E80F0001237C
:1098D0000393D1E701257DE72DE9F04F4FF0010B10
:1098E000A1B081468A464FF00008D9E90C52D9F858
:1098F000384013E05109531C601ED9F83C60C9F888
:109900003430C9F8380056F8217002F01F010BFA04
:1099100001F1394200F0718104461A469542E9D1BD
:10992000002C00F01383D9F80020D9F82C30D9F896
:109930003C00D2E908121D44944228BF1446B5FBEE
:10994000F1F301FB1355C9F83480C9F83040D2084F
:10995000C9F82C5000210AF0E4FBD9F80430013397
:10996000C3D0D9F808300133BFD015AA012305921E
:10997000524609F11407CA46CDF834800E930024EC
:109980009146DAF80060DAF82C20316ADAF83050C3
:109990008A1A1444B4FBF1F001FB1040A84212D221
:1099A000DAF83C10440900F01F0351F824200BFAA8
:1099B00003F3134341F82430316ADAF82C200E9B6C
:1099C000DAF830508A1A1A44B2FBF1F301FB132281
:1099D000AA420BD25409DAF83C0002F01F0250F8F8
:1099E00024100BFA02F30B4340F824300DAA05991A
:1099F0005046FFF7E1F8002840F0BA81CDF81C90FE
:109A00000C26B946189B12AC1CE0169ACDE900460C
:109A100049465046FEF7ECFF002840F0A9819DF82A
:109A200049309DF84A209DF84B001899043313449F
:109A30009DF84820034402F070020B44102A18934A
:109A400000F089821D9A22F00042043A03F10C01D1
:109A50009142DAD9DDE91E43601C4F46CDE90D4342
:109A6000DDF81C9001D0591C8BD14B46D1469A464B
:109A7000D9F80C50002D3FF438AFCDF824A0AA46F9
:109A8000DAF81C30DA0340F19C81DAF81440002C3B
:109A900000F09781D9F80010CD69013C083DB4FB76
:109AA000F5F3069353B1581E05910AF061FA059932
:109AB0000230A4EB8004B4FBF5F30693DAF810301F
:109AC0000593D9F82C400B6AD9F83000059A1A444E
:109AD000141BB4FBF3F203FB124383420BD25C0969
:109AE000D9F83C0003F01F0350F824200BFA03F3CD
:109AF000134340F82430069B002B00F0608103F0F4
:109B00000103C3F102030A6A07939D00059B934278
:109B100080F012810FAF002408461A4620E0D9F8E1
:109B20001430059A46699A4200F0CF82B4FBF6F2EF
:109B3000436806FB12429C46002A00F0EC8205991D
:109B4000D9F81C30C9F81410A21AC9F818200096C8
:109B50006646B047002840F00B81D9F80000059A0E
:109B6000DAF82C309A42DAD1DAF83020A242D6D88C
:109B700083691344A342D2D91B1BDAF83410AB42D9
:109B800028BF2B46A21A11441E461A463846AD1A63
:109B90000AF0A3FA34443744D9F80000002DDED18E
:109BA000079B5D1E012D0146036AD9E90B4019D1BF
:109BB0000F9A121BD618B6FBF3F203FB1262824215
:109BC00010D25409D9F83C0002F01F0350F82420A9
:109BD00005FA03F3134340F82430D9F82C400B6AFC
:109BE000D9F8300020AA02EB8505DDE90626921B94
:109BF000069255F8442C059269E7D9F80000D9F887
:109C00002C10076A0A44AB42B2FBF7F107FB1122A2
:109C100006921BD0590903F01F0256F821100127A4
:109C200007FA02F20A4211D0023C0AE0590903F095
:109C30001F0256F821100BFA02F20A4204F1FF3417
:109C400004D00133AB42C9E90D34EFD1C3680699A2
:109C500098470346079038B113F1340F3FF443AEF1
:109C6000184621B0BDE8F08FDAF82830D9F80000A6
:109C7000002B00F08180DAF82440036A09F1140215
:109C80009C42089258D215AB0593079F09F1200317
:109C900009933D46DDF8148017E0D9F81430416986
:109CA0009C424FD0B5FBF1F201FB1252002A54D076
:109CB000D9F81C300091AA1AC9E905424668214624
:109CC000B047002854D1D9F80000DAF82C309C4273
:109CD000E3D1DAF83030AB42DFD886691E44AE42B9
:109CE000DBD9DAF83410761B012E28BF0126EB1AD7
:109CF0003246404619443544B044C6F101060AF0E4
:109D0000ECF9002EDFD101230293059BDDE9082148
:109D1000CDE900734846069BFEF7DCFF002849D1D9
:109D2000DAF82830D9F800000137BB4224D9DAF834
:109D30002440036A9C42ACD3AC4BAD4AAD481221DF
:109D40000AF030F9D9F81830AB42ABD85E18AE4201
:109D5000A8D9761BD9F81C10C6E70129A8D8012379
:109D60000093214643462A464468A0470028CAD0AB
:109D7000079021B0BDE8F08F8269D9F82810DAF891
:109D800034000AF0AAF9D9E90813D9F80020D9F863
:109D900028009269CAE90B13FF210AF0C2F94FF0BB
:109DA000FF33C9F820300798069BCAF8243021B049
:109DB000BDE8F08F10F1340F3FF495ADD8E7DAF835
:109DC0001C309B0340F1B980DAF82040002C00F0F1
:109DD000B480D9F80010CD69013C083DB4FBF5F31F
:109DE000069353B1581E05910AF0C2F80599023046
:109DF000A4EB8004B4FBF5F30693DAF82430059362
:109E0000D9F82C400B6AD9F83000059A1A44141B73
:109E1000B4FBF3F203FB124383420BD25C09D9F883
:109E20003C0003F01F0350F824200BFA03F3134304
:109E300040F82430069B002B7FD003F00103C3F1D0
:109E400002030A6A07939D00059B9342BFF474AF17
:109E50000FAF002408461A4620E0D9F81430059ABE
:109E600046699A4200F04481B4FBF6F2436806FB6F
:109E700012429C46002A00F064810599D9F81C30F2
:109E8000C9F81410A21AC9F8182000966646B047FF
:109E900000287FF46DAFD9F80000059ADAF82C306D
:109EA0009A42DAD1DAF83020A242D6D88369134434
:109EB000A342D2D91B1BDAF83410AB4228BF2B4681
:109EC000A21A11441E461A463846AD1A0AF005F980
:109ED00034443744D9F80000002DDED1079BD9F86F
:109EE0002C405D1E012D0146036AD9F8300019D1BE
:109EF0000F9A121BD618B6FBF3F203FB12628242D2
:109F000010D25409D9F83C0002F01F0350F8242065
:109F100005FA03F3134340F82430D9F82C400B6AB8
:109F2000D9F8300020AA02EB8505DDE90626921B50
:109F3000069255F8442C059268E7DAF800A0BAF1C9
:109F4000000F7FF49DADDDF824A0CEE46FF01B037D
:109F50000793184685E6149C002C3FF454ADDAF8BC
:109F60000010CD69013C083DB4FBF5F3089353B1F3
:109F7000581E069109F0FCFF0699831CA4EB83038D
:109F8000B3FBF5F30893139B0693DAF82C500B6A96
:109F9000DAF83040069ACDF82C9008461A44551B42
:109FA000B5FBF3F203FB1253A3420BD25C09DAF8C0
:109FB0003C1003F01F0351F824200BFA03F3134362
:109FC00041F82430089B002B00F0E78003F00103E8
:109FD000C3F10203026A09939C00069B9342BFF4FB
:109FE000ABAE0DF13C09002520E000BFF475030085
:109FF00070750300147603004368B5FBF1F201FBB2
:10A0000012529C46002A00F0B280069FCAF81470D3
:10A01000AA1ADAF81C30CAF81820009139466746A7
:10A02000B84700287FF4A4AEDAF80000DAF814305C
:10A03000069A41699A42DFD1DAF81830AB42DBD890
:10A040005A18AA42D8D9521BDAF81C10A242A5EB22
:10A05000030328BF2246484619441746A41A15444C
:10A060000AF03BF8B944DAF80000002CDED1099B75
:10A07000DAF82C50DAF83040591E0129036A19D158
:10A080000F9A521B1A44B2FBF3F703FB1722A242AA
:10A0900010D2DAF83C50570902F01F0355F8274058
:10A0A00001FA03F3234345F82730DAF82C50036A0A
:10A0B000DAF8304020AA02EB8101DDE90827D21B43
:10A0C000089251F8442C069268E7D9F81830A34258
:10A0D0003FF62CAD9A19A2427FF628AD121BD9F893
:10A0E0001C10AA4228BF2A46E31A164619444DE519
:10A0F000D9F81830A3423FF6B7AE9A19A2427FF6BC
:10A10000B3AE121BD9F81C10AA4228BF2A46E31A84
:10A1100016461944D8E6B542FFF411ADB5FBF6F387
:10A1200006FB1353ED1A089300953B46224605990A
:10A130006646B04700287FF41BAE2F442C44089D90
:10A140002AE5B542FFF499AEB5FBF6F306FB1353CF
:10A15000ED1A089300953B46224605996646B0479E
:10A1600000287FF405AE2F442C44089DB2E68C42B3
:10A17000FFF44BAFB4FBF1F701FB1743E41A0A936A
:10A1800000944B462A4606996746B84700287FF454
:10A19000EFADA14425440A9C65E7DDF82C9031E43D
:10A1A0002DE9F04FD0E90C63A1B04FF0010901F1A6
:10A1B000040801F10C0204460392CA460491C34606
:10A1C0004FF000082746B96B0FE05A090139581CB7
:10A1D000FD6BB963786355F8224003F01F0209FA5A
:10A1E00002F2224200F0658103469E42EDD1002931
:10A1F00000F0BA813A68FB6AD2E908021E44914233
:10A2000028BF1146B6FBF0F300FB13663963C7F8AD
:10A210003480D208FE620021F86B09F082FF7B686F
:10A22000013300F09881BB68013300F09481CDE9DF
:10A230000D8A07F11406CDF814B001230024B346AB
:10A240003E68FA6A306A3D6B821A1444B4FBF0F13E
:10A2500000FB1141A9420FD2F86B4C0901F01F031A
:10A2600050F8242009FA03F3134340F82430FA6A23
:10A27000306A0E9B3D6B821A1A44B2FBF0F300FB6E
:10A280001323AB420AD25809F96B03F01F0351F8AC
:10A29000202009FA03F3134341F820300DAA15A931
:10A2A0003846FEF789FC002840F050815B460C26BA
:10A2B000BB461F46189B12AC1CE0169ACDE900461F
:10A2C00039465846FEF794FB002840F03F819DF840
:10A2D00049309DF84A209DF84B00189904331344E7
:10A2E0009DF84820034402F070020B44102A189392
:10A2F00000F03D811D9A22F00042043A03F10C0166
:10A300009142DAD93B465F469B46DDE91E43601C1D
:10A31000CDE90D4301D0591C92D1FD68DDF814B090
:10A32000002D00F01881CDF828B0AB460CE09B035F
:10A3300004D5DBF82040002C40F0F681DBF800B0BB
:10A34000BBF1000F00F00581DBF81C30DA03EED51D
:10A35000DBF81440002CEAD03B68DD69013C083D85
:10A36000B4FBF5F2079252B1501E059309F000FEBE
:10A370000230A4EB8004B4FBF5F30793059BDBF8F4
:10A3800010200592FC6A1A6A386B0599CDF818B04E
:10A3900011440C1BB4FBF2F102FB114282420AD2BF
:10A3A0005409F86B02F01F0250F8241009FA02F267
:10A3B0000A4340F82420079A002A00F0A28202F003
:10A3C0000102C2F10202196A08929500059A8A42B6
:10A3D00080F09F820DF13C0B0024069A0599D26A09
:10A3E000914222D07A6905985969904200F07181B2
:10A3F000B4FBF1F2586801FB12428446002A00F0D7
:10A400007B81FE6905987861A21ABA6118460091AD
:10A41000334605996646B047002840F09780069A73
:10A420000599D26A3B689142DCD1069A106BA04232
:10A43000D8D89A690244A242D4D90993069B121B28
:10A44000596BAA4228BF2A46201A1646014458468C
:10A45000AD1A09F042FE099B3444B344002DBCD12F
:10A46000089A551E012DD7E90B401A6A16D10F998B
:10A47000091B1144B1FBF2F602FB161181420DD209
:10A48000FC6B4E0901F01F0254F8260005FA02F297
:10A49000024344F82620D7E90B401A6A20A901EBB1
:10A4A0008505DDE90716891B079155F8441C0591C0
:10A4B0006EE73968FA6A096A1344B3FBF1F201FBEB
:10A4C00012334BF8043BD7E90C63B3423C461BD034
:10A4D000590903F01F0255F821100AFA02F20A4244
:10A4E00012D0B86B01380AE0590903F01F0255F881
:10A4F000211009FA02F20A4200F1FF3004D00133C0
:10A50000B342C4E90D30EFD1039A5A457FF458AEF7
:10A51000DDF810B004210BF11C03DBF80420204609
:10A52000CDE90031002304F11401FEF761FAA8B966
:10A53000DBF81C304FF0FF32CBE909221420013345
:10A540001021CBE90730CBF80C10002021B0BDE87A
:10A55000F08FDDF828B0D7E90C6334E610F1340F42
:10A56000E6D021B0BDE8F08F6FF01B00EEE7149C41
:10A57000002C3FF4A0AEDBF80010CD69013C083D93
:10A58000B4FBF5F3089353B1581E069109F0F0FCA3
:10A590000699831CA4EB8303B3FBF5F30893139B89
:10A5A0000693DBF82C500B6ADBF83040069A0B97C9
:10A5B00008461A44551BB5FBF3F203FB1253A342A2
:10A5C0000BD25C09DBF83C1003F01F0351F8242088
:10A5D00009FA03F3134341F82430089B002B00F0E1
:10A5E0008E8103F00103C3F10203026A09939D0007
:10A5F000069B934280F08D810FAB0793002718E0F4
:10A600004368B7FBF1F201FB12729C46002A00F08E
:10A610005E81069CCBF81440BA1ADBF81C30CBF8EC
:10A620001820009121466446A04700288ED1DBF80F
:10A630000000DBF81430069A41699A42E0D1DBF859
:10A640001830BB42DCD85A18BA42D9D9D21BDBF831
:10A650001C100798FB1AAA4228BF2A461944144620
:10A66000AD1A174409F039FD079B23440793DBF823
:10A670000000002DDDD1099BDBF82C50DBF83040C9
:10A68000591E0129036A19D10F9A521BD718B7FB1B
:10A69000F3F203FB1272A24210D25509DBF83C40E0
:10A6A00002F01F0254F8253001FA02F2134344F875
:10A6B0002530DBF82C50036ADBF8304020AA02EB8F
:10A6C0008101DDE90827D21B089251F8442C06923B
:10A6D0006FE7BA69A2423FF68BAE5018A0427FF6F0
:10A6E00087AE001BF9690993A84228BF2846A21A21
:10A6F000114406460246AAE68D42FFF482AEB5FB3F
:10A70000F1F601FB1652AD1A0992184600955B4608
:10A71000224605996646B04700287FF417AFAB4440
:10A720002C443B68099D99E63B68DD69013C083D86
:10A73000B4FBF5F2069252B1501E059309F018FCD5
:10A740000230A4EB8004B4FBF5F30693059BDBF821
:10A7500024200592FC6A1A6A386B0599CDF81CB062
:10A7600011440C1BB4FBF2F102FB114282420AD2EB
:10A770005409F86B02F01F0250F8241009FA02F293
:10A780000A4340F82420069A002A00F0BF8002F015
:10A790000102C2F10202196A08929500059A8A42E2
:10A7A00080F0B7800DF13C0B0024079A0599D26A1E
:10A7B000914220D07A690598596990425FD0B4FBE4
:10A7C000F1F2586801FB12428446002A68D0FE6903
:10A7D00005987861A21ABA61184600913346059926
:10A7E0006646B04700287FF4B1AE079A0599D26A51
:10A7F0003B689142DED1079A106BA042DAD89A6981
:10A800000244A242D6D90993079B121B596BAA4254
:10A8100028BF2A46201A164601445846AD1A09F0A8
:10A820005CFC099B3444B344002DBED1089A551EEC
:10A83000012DD7E90B401A6A16D10F99091B114453
:10A84000B1FBF2F602FB161181420DD2FC6B4E09F0
:10A8500001F01F0254F8260005FA02F2024344F800
:10A860002620D7E90B401A6A089E20A901EB85052E
:10A870000699891B069155F8441C059170E7BA6941
:10A88000A2429CD85018A04299D9001BF96909939B
:10A89000A84228BF2846A21A114406460246BCE731
:10A8A0008D4294D3B5FBF1F601FB1652AD1A099215
:10A8B000184600955B46224605996646B047002833
:10A8C0007FF444AEAB442C443B68099DACE78D4219
:10A8D000FFF49FAEB5FBF1F401FB1453ED1A0A939C
:10A8E0000095079B06993A466446A04700287FF4E6
:10A8F0002DAE079B2B442F4407930A9DB7E60B9F71
:10A90000D8E4DDF818B0DBF81C3010E5DDF81CB039
:10A9100014E5034B034A0448122109F043FB00BF2E
:10A92000F475030070750300147603002DE9F04FF1
:10A9300095B014AB054643F8342DD0E90162C1E966
:10A9400001620CAA0C46FEF757FD834600285FD132
:10A950009DF83430222B40F08E80DDE90E23CDE9C6
:10A960000A2305F11408814602900DF1400A039074
:10A970000AAB414653F829701023CDE900A33A46AB
:10A9800000232846FEF734F800283DD1029B23B16E
:10A99000109BE2699B1A002B58DB119B23F00043AC
:10A9A000132B53D92A68D26993424FD814AB4FF076
:10A9B000FF3143F82C1D102218465146049302F033
:10A9C00077FE119B23F00042102A27D0CDE9059491
:10A9D00010260DF1230B1446DDF8109004E04846D4
:10A9E00002F066FEB44217D00123CDE900B33A4627
:10A9F000334641462846FDF7FBFF012259461644DF
:10AA00000028ECD0DDE9059410F1340F1ED0834608
:10AA1000584615B0BDE8F08FDDE90594099B09F1B2
:10AA200001069BB99AE80F0006F001060DF1500CE3
:10AA30000CEB8606676056F8286CA660102704F1B8
:10AA40001C06E76086E80F0001230293B9F1000FAE
:10AA500014D0DDE9023BA3B1D4E901122B692161D5
:10AA600062610E2110225846A161E26023602C61D0
:10AA700015B0BDE8F08F6FF0130BC9E74FF0010977
:10AA800076E76FF0330BC3E7026942B18A4203D124
:10AA900007E0994207D01A461368002BF9D100202D
:10AAA000704700F110020B6813600020704700BF70
:10AAB0002DE9F04FA9B00992CA690A9302F0030484
:10AAC000012C00F0268454038A46834602F40033A6
:10AAD00000F1E882100507D5DAF81420DAF8201022
:10AAE000914238BFCAF82020002B00F0E5820A9B73
:10AAF0001846002B00F0F1810AF12C0305930A9B04
:10AB00000B93D0464FF00109DA46D8F81C30990370
:10AB100000F19F81D8F82010002940F0F482D3463C
:10AB20005BF8143B1D6ACAF83850D8E90823CDF801
:10AB3000308006921493D0464FF0000AD8E90C14E6
:10AB400013E06209631C681ED8F83C60C8F8343012
:10AB5000C8F8380056F8227004F01F0209FA02F211
:10AB60003A4200F0C18105461C46A142E9D1002DC0
:10AB700000F0F182D8F80020D8F82C30D2E9080291
:10AB80001944954228BF1546B1FBF0F300FB1311A1
:10AB9000C8F82C10C8F834A0C8F83050D2080021EA
:10ABA000D8F83C0009F0BDFAD8F80430013300F0C1
:10ABB0002082D8F80830013300F01B8201231DAD3C
:10ABC000CDF854A0169300240C272E46D8F800C0C8
:10ABD000D8F82C20DCF82000D8F83050821A144421
:10ABE000B4FBF0F100FB1141A94213D2D8F83C00AC
:10ABF0004C0901F01F0350F8242009FA03F3134312
:10AC000040F82430DCF82000D8F82C20169BD8F827
:10AC10003050821A1A44B2FBF0F300FB1323AB420C
:10AC20000BD25809D8F83C1003F01F0351F820202C
:10AC300009FA03F3134341F8203015AA3146404680
:10AC4000FDF7BAFF002840F0BD811AAC0D96209B9D
:10AC50001CE01E9ACDE9004759464046FDF7C8FE64
:10AC6000002840F0AF819DF869309DF86A209DF87A
:10AC70006B002099043313449DF86820034402F0CC
:10AC800070020B44102A209300F06A82259A22F069
:10AC90000042043A03F10C019142DAD9DDE926437E
:10ACA000621C0D9ECDE9154301D05D1C8ED1D8F8F4
:10ACB0000C50002D00F09D81CDF83CB0AB460CE06F
:10ACC000990304D5DBF82040002C40F03B83DBF8EF
:10ACD00000B0BBF1000F00F08A81DBF81C30D80314
:10ACE000EED5DBF81440002CEAD0D8F80010CD697E
:10ACF000013C083DB4FBF5F3089353B1581E07918E
:10AD000009F036F907990230A4EB8004B4FBF5F39F
:10AD10000893DBF810300793D8F82C400B6AD8F86A
:10AD20003000079A1A44141BB4FBF3F203FB1243DE
:10AD300083420BD25C09D8F83C0003F01F0350F8A3
:10AD4000242009FA03F3134340F82430089B002B16
:10AD500000F0048403F00103C3F102030A6A0D93B7
:10AD60009D00079B934280F0F38317AF00240846B1
:10AD7000DBF82C30079A9A4224D0D8F81430079A7E
:10AD800046699A4200F0AB82B4FBF6F2436806FBD8
:10AD900012429C46002A00F0BF820799D8F81C3066
:10ADA000C8F81410A21AC8F8182000966646B047D2
:10ADB000002840F00781DBF82C30079AD8F8000013
:10ADC0009A42DAD1DBF83020A242D6D88369134404
:10ADD000A342D2D91B1BDBF83410AB4228BF2B4651
:10ADE000A21A11441E461A463846AD1A09F075F9E2
:10ADF00034443744D8F80000002DB9D10D9B5D1EB6
:10AE0000012D0146036AD8E90B4017D1179A121B8E
:10AE1000D618B6FBF3F203FB126282420ED254093B
:10AE2000D8F83C0002F01F0350F8242005FA03F381
:10AE3000134340F82430D8E90B400B6A0D9E28AA32
:10AE400002EB8505089A921B089255F8442C07924C
:10AE500068E7D346D8F828505BF8143BDE69B54262
:10AE60003FF460AED8F824400B9B059F761B9E42B2
:10AE700028BF1E462346099C0CE010F1340F40F019
:10AE8000368141465046FEF727FD002840F02F81CD
:10AE9000D8E90935CDE9014600955A46394650466C
:10AEA000FDF718FF0028E8D1D8F82020D8F828307E
:10AEB000DAF8001032443344096AC8F82020C8F890
:10AEC0002830099A0B9BCAF8381032449B1B099210
:10AED0000B937FF41AAE0A98C246DAF81C3023F4BA
:10AEE0000023CAF81C3075E0D8F80000D8F82C20F0
:10AEF000076A14448B42B4FBF7F207FB124420D0DC
:10AF00004FEA531C03F01F0256F82CC04FF0010EFD
:10AF10000EFA02F212EA0C0F13D0023D0CE04FEAD7
:10AF2000531C03F01F0256F82CC009FA02F212EA71
:10AF30000C0F05F1FF3504D001338B42C8E90D3504
:10AF4000EDD1012C40F2F282A742C0F0EF82C3683B
:10AF500021469847002840D1069BD8F80070002B66
:10AF600000F0D0811A46FB69561EA3F1080AB6FB11
:10AF7000FAF5002D40D1721C9342069251D013462F
:10AF8000002A00F0A7819A4600251DAE059F0EE01D
:10AF90000123CDE90163009523465A4639464046D0
:10AFA000FDF798FEC8B90135AA4500F0CC80012311
:10AFB000CDE90063149A2B4659464046FDF718FD2B
:10AFC0000028E5D0DDF830A0DAF81C3043F4002387
:10AFD000CAF81C3029B0BDE8F08F10F1340FF1D160
:10AFE0004FF0FF33C8F82030D8F83850A4E5DDF82A
:10AFF0003CB0D8F83850A1E5681E069308F0B8FFB9
:10B00000851CA6EB8505B5FBFAF5284608F0B0FFD0
:10B0100005FB1A66069BA6EB8006721C93420692FD
:10B02000ADD16E1C96FAA6F3B3FA83F307930133FE
:10B0300000250DF1500A08930426AF005A46CDE9C9
:10B0400001A60097234605994046FDF743FE149A52
:10B050000028C2D1079BAB4209D0CDE900A63B46F0
:10B0600059464046FDF7C4FC0028ABD1149A012A8A
:10B0700040F26382D8F800703B6A9342C0F05D8270
:10B08000089B0135AB42D8D8C246DDF830809D0020
:10B09000C8E90945D8F81C30FE6943F40033C8F804
:10B0A0001C30E1E64FF0FF3522F48024CD62CC6104
:10B0B000FBB912053FF510ADDAF82040DAF814308C
:10B0C0009C427FF614ADCAF82030002501230DF113
:10B0D0004F02514658468DF84F50FFF7E9FC0028C3
:10B0E000FFF678AFDAF820309C42EFD8FFE4C24692
:10B0F0006AE700F043FA00287FF46CAFDAF81C200E
:10B1000002F40033E6E4013908F1240008F12804D0
:10B11000D8E904230091CDE9010405995046FDF7D3
:10B12000C9FC0028E3D1DAF80030D8F834009A6975
:10B13000D346FF2108F0F5FF4FF0FF325BF8143BD8
:10B14000C8F82C20EEE4C246DDF83080DAF8007052
:10B15000C8E909459EE7DDF830A06FF01B0033E732
:10B160001C9E002E3FF492ADD8F80010CD69013E30
:10B17000083DB6FBF5F30E9353B1581E079108F046
:10B18000F7FE0799831CA6EB8303B3FBF5F30E933D
:10B190001B9B0793D8F82CC0D8F83050079A0B6A3D
:10B1A000CDF844B0084661461A44511AB1FBF3F297
:10B1B00003FB1213AB420BD25D09D8F83C1003F02D
:10B1C0001F0351F8252009FA03F3134341F82530F2
:10B1D0000E9B002B00F0B88103F00103C3F10203C2
:10B1E000026A0F939E00079B934280F0B18117ABD8
:10B1F00008934FF0000B1AE04368BBFBF1F201FB30
:10B2000012B29C46002A00F07981079DC8F81450BC
:10B21000ABEB0202D8F81C30C8F818200091294680
:10B220006546A84700287FF4CDAED8F80000D8F8CE
:10B230001430079A41699A42DED1D8F818305B453C
:10B24000DAD85A185A45D7D9A2EB0B02D8F81C10F5
:10B250000898ABEB0303B24228BF324619441546A7
:10B26000B61A934408F039FF089B2B440893D8F88A
:10B270000000002EDBD10F9BD8F82C10D8F83050EE
:10B280005E1E012E036A1AD1179A521A02EB030CA2
:10B29000BCFBF3F203FB12C2AA4210D25509D8F844
:10B2A0003C1002F01F0251F8253006FA02F2134357
:10B2B00041F82530D8F82C10036AD8F8305028AA65
:10B2C00002EB860CDDE90E26921B0E925CF8442CF4
:10B2D000079269E7C2461546DDF8308038E7D8F8AE
:10B2E0001830A3423FF650AD9A19A2427FF64CADFA
:10B2F000121BD8F81C10AA4228BF2A46E31A164689
:10B30000194471E5C246DDF830801D46C8E909439D
:10B31000C0E66FF008005DE6B542FFF43EADB5FB58
:10B32000F6F306FB1353ED1A0E9300953B462246A7
:10B3300007996646B04700287FF444AE2F442C445A
:10B340000E9D57E5D8F80010CD69013C083DB4FBCF
:10B35000F5F3089353B1581E079108F009FE0799B9
:10B360000230A4EB8004B4FBF5F30893DBF824303F
:10B370000793D8F82C400B6AD8F83000079A1A4483
:10B38000141BB4FBF3F203FB124383420BD25C09A0
:10B39000D8F83C0003F01F0350F8242009FA03F307
:10B3A000134340F82430089B002B3FF490AC03F08B
:10B3B0000103C3F102030A6A0D939D00079B9342A8
:10B3C00080F0C68017AF00240846DBF82C30079ABF
:10B3D0009A4222D0D8F81430079A46699A4267D028
:10B3E000B4FBF6F2436806FB12429C46002A70D07A
:10B3F0000799D8F81C30C8F81410A21AC8F81820F9
:10B4000000966646B04700287FF4DCADDBF82C30B0
:10B41000079AD8F800009A42DCD1DBF83020A2422B
:10B42000D8D883691344A342D4D91B1BDBF834104A
:10B43000AB4228BF2B46A21A11441E461A46384674
:10B44000AD1A08F04AFE34443744D8F80000002D05
:10B45000BBD10D9BD8F82C405D1E012D0146036A1F
:10B46000D8F8300019D1179A121BD618B6FBF3F290
:10B4700003FB1262824210D25409D8F83C0002F059
:10B480001F0350F8242005FA03F3134340F8243037
:10B49000D8F82C400B6AD8F830000D9E28AA02EB91
:10B4A0008505089A921B089255F8442C079266E786
:10B4B000D8F81830A34293D89A19A24290D9121BF7
:10B4C000D8F81C10AA4228BF2A46E31A1646194487
:10B4D000B5E7B5428CD3B5FBF6F306FB1353ED1A73
:10B4E0000E9300953B46224607996646B0470028D2
:10B4F0007FF468AD2F442C440E9DA6E78E42FFF4E6
:10B5000084AEB6FBF1F501FB1563F61A10930096B5
:10B51000089B07995A466546A84700287FF452AD14
:10B52000089B3344B3440893109EA0E60D4B0E4A8B
:10B530000E4840F28C4108F035FD0D4B0A4A0B488D
:10B5400040F2D34108F02EFDDDF844B0FFF77FBB99
:10B55000084B094A0548122108F024FDDBF81C308D
:10B56000FFF7AEBBE4760300A0750300147603007A
:10B5700090760300F4750300707503002DE9F04F19
:10B580008A4699B0064606F11404DAF8207005944C
:10B590002C2200210AA8079708F0C3FD94E80700B1
:10B5A0004FF0FF35DAE904340DF154097561DAF82A
:10B5B00020500E9389E80700DAF81410129701233F
:10B5C0008D420F9411936DD29F033BD4129A0F9B1F
:10B5D0009A4247D20DF127080DF14C0B1BE033685E
:10B5E000149DDF69BD421BD07C1B012C28BF0124A8
:10B5F000CDF80080139A01942B4649463046FDF75A
:10B60000F7F9A04460BB129A149B2244AF421C4439
:10B610001292149426D1119B5C0349463046DED425
:10B62000DDE90E4314AD0092CDE901B52246FDF7E8
:10B6300041FAA8B9119B3268149DD76943F480235D
:10B640001193D1E75D0305D523F480234FF0FF323A
:10B65000119315920AA93046FFF790FF0028B5D044
:10B6600000281CDB01230DF1270251463046FFF76D
:10B670001FFA002813DB7369013303D04FF0FF3347
:10B6800015937361DAF82020DAF814309A4209D25F
:10B69000119B03F00302022A96D16FF0080019B043
:10B6A000BDE8F08F0DF1270B4FF00109DAF82C10EF
:10B6B0004B1C4AD03068DAF834308469DAF830202C
:10B6C00000948468A04720BB3368DAF82C809A691C
:10B6D000DAE90C75002A4DD02C46CDF818A0154497
:10B6E0003F1BDDF814A007E014F8013B9DF827206C
:10B6F0009A421AD1AC421BD0CDE900B93B1942465F
:10B7000051463046FDF774F90028EDD0DDF818A059
:10B7100032DA10F1340FC2D151463046FEF7DCF870
:10B720000028C3D019B0BDE8F08FDDF818A0F3E70A
:10B73000DDF818A03368DAF834009A69FF2108F0C0
:10B74000F0FC4FF0FF33CAF82C30DAF81C3023F449
:10B750000033DAE9082143F48033CAF81C30079B30
:10B76000CAF810100020CAF81420CAF8203019B006
:10B77000BDE8F08F2846E1E73368DAF834009A69CB
:10B78000DCE700BF2DE9F04F0D46C969074601F01F
:10B790000300022887B061D08803904647D42A6A04
:10B7A00069698A423FD2891A99420E4628BF1E46CD
:10B7B0000596002E4ED005F12C0905F1280B05F158
:10B7C000240A1AE03C68AB6AE469A3421AD0E41A7E
:10B7D000B44228BF34466A6ACDF8008001944946D5
:10B7E0003846FDF705F9A044F0B92A6AAB6A22444D
:10B7F0002344361B2A62AB622CD0EB695B034946BB
:10B800003846DFD4D5E904430092CDE901AB2246A6
:10B81000FDF750F940B9EA693968AB6ACC6942F47E
:10B820008022EA61D3E7002007B0BDE8F08F4A0329
:10B8300005D521F480214FF0FF32E961EA62294603
:10B8400038460593FFF79AFE059B0028A7D007B05E
:10B85000BDE8F08F059807B0BDE8F08F6FF00800E5
:10B86000E2E700BF70B50C46C96916464A031D469B
:10B8700005D521F480214FF0FF33E161E3628B03B2
:10B8800004D52146FFF77AFE00B170BD15B93046E8
:10B89000266270BD012D03D0022D07D0206A70BD35
:10B8A000002E206A0BDB3044206270BD002E6069E0
:10B8B000F9DA73428342F6D96FF0150070BD734216
:10B8C0009842F0D2F8E700BF086A7047CB69486930
:10B8D0009B0303D50B6A984238BF1846704700BFD8
:10B8E000F0B595B014AB154643F8441D05AA09A957
:10B8F0000646FDF781FD044610B1204615B0F0BDA7
:10B900004C220146284608F00CFC9DF818302B709C
:10B91000112B04BF089B6B607268079B934205F173
:10B9200008071BD00898B168884217D08B4215D001
:10B93000824213D005999DF819009DF81A300A9A91
:10B940000097043101449DF81B0001900B443046E0
:10B9500006F11401FDF74CF80446CEE7024B1B88B4
:10B960002B81204615B0F0BDBC76030030B58B6A44
:10B97000016099B00446002B73D0C361C86A8A691C
:10B98000002879D0A062FF2108F0CBFB4FF0FF33F5
:10B99000216823626361486AC30640F0C4800028BE
:10B9A00000F0B3800B6B002B6ED0E363D1E905038D
:10B9B000B3FBF0F200FB1232002A40F0C280C869EB
:10B9C000B0FBF3F203FB1203002B40F0B3804FF007
:10B9D000FF35A0F10802B5FBF2F22A44B2FA82F276
:10B9E000C2F12002B0EB820FC0F096800A6AA26317
:10B9F000C4E90155C4E90333012584F84030C4E9A2
:10BA00000B33636302AA0DA92046CDE90235FDF789
:10BA1000D3F8054660B123689A6A002A44D0DA6AEE
:10BA2000002A3CD01B6B002B35D0284619B030BD06
:10BA3000202105ABCDE900310E9A102304F1140149
:10BA40002046FCF7D5FF05460028E4D1404B0B9A71
:10BA5000DDE906019A42C4E901012AD06FF03305FD
:10BA6000D9E7486902F004FAE061002833D0216880
:10BA7000C86A8A69002885D1104602F0F9F9A062E7
:10BA800048B323689A697EE7C00802F0F1F9E063E1
:10BA900008B321688AE7E06B02F0FCF9C5E7A06A09
:10BAA00002F0F8F92368BDE7E06902F0F3F92368D2
:10BAB000B5E70C9AA3F18773A3F580639A42CDD1C1
:10BAC0000A9B1A0C012A02D06FF01505A3E79BB25E
:10BAD000012BF9D8A9E723689A6A8AB1DA6A52B1C8
